{
  "contractName": "theVotingContract",
  "abi": [
    {
      "anonymous": false,
      "inputs": [
        {
          "indexed": true,
          "internalType": "string",
          "name": "pollId",
          "type": "string"
        },
        {
          "indexed": true,
          "internalType": "uint256",
          "name": "candidateId",
          "type": "uint256"
        }
      ],
      "name": "CandidateAdded",
      "type": "event"
    },
    {
      "anonymous": false,
      "inputs": [
        {
          "indexed": false,
          "internalType": "string",
          "name": "pollId",
          "type": "string"
        }
      ],
      "name": "PollCreated",
      "type": "event"
    },
    {
      "anonymous": false,
      "inputs": [
        {
          "indexed": true,
          "internalType": "string",
          "name": "pollId",
          "type": "string"
        },
        {
          "indexed": true,
          "internalType": "uint256",
          "name": "candidateId",
          "type": "uint256"
        }
      ],
      "name": "Voted",
      "type": "event"
    },
    {
      "inputs": [
        {
          "internalType": "string",
          "name": "",
          "type": "string"
        }
      ],
      "name": "polls",
      "outputs": [
        {
          "internalType": "string",
          "name": "id",
          "type": "string"
        },
        {
          "internalType": "string",
          "name": "description",
          "type": "string"
        },
        {
          "internalType": "uint256",
          "name": "candidatesCount",
          "type": "uint256"
        },
        {
          "internalType": "address",
          "name": "creator",
          "type": "address"
        }
      ],
      "stateMutability": "view",
      "type": "function",
      "constant": true
    },
    {
      "inputs": [
        {
          "internalType": "string",
          "name": "_description",
          "type": "string"
        }
      ],
      "name": "createPoll",
      "outputs": [
        {
          "internalType": "string",
          "name": "",
          "type": "string"
        }
      ],
      "stateMutability": "nonpayable",
      "type": "function"
    },
    {
      "inputs": [
        {
          "internalType": "string",
          "name": "_pollId",
          "type": "string"
        },
        {
          "internalType": "string",
          "name": "_name",
          "type": "string"
        }
      ],
      "name": "addCandidate",
      "outputs": [],
      "stateMutability": "nonpayable",
      "type": "function"
    },
    {
      "inputs": [
        {
          "internalType": "string",
          "name": "_pollId",
          "type": "string"
        },
        {
          "internalType": "address",
          "name": "_admin",
          "type": "address"
        }
      ],
      "name": "assignAdmin",
      "outputs": [],
      "stateMutability": "nonpayable",
      "type": "function"
    },
    {
      "inputs": [
        {
          "internalType": "string",
          "name": "_pollId",
          "type": "string"
        },
        {
          "internalType": "uint256",
          "name": "_candidateId",
          "type": "uint256"
        }
      ],
      "name": "vote",
      "outputs": [],
      "stateMutability": "nonpayable",
      "type": "function"
    },
    {
      "inputs": [
        {
          "internalType": "string",
          "name": "_pollId",
          "type": "string"
        }
      ],
      "name": "getPollCandidates",
      "outputs": [
        {
          "components": [
            {
              "internalType": "uint256",
              "name": "id",
              "type": "uint256"
            },
            {
              "internalType": "string",
              "name": "name",
              "type": "string"
            },
            {
              "internalType": "uint256",
              "name": "voteCount",
              "type": "uint256"
            }
          ],
          "internalType": "struct theVotingContract.Candidate[]",
          "name": "",
          "type": "tuple[]"
        }
      ],
      "stateMutability": "view",
      "type": "function",
      "constant": true
    }
  ],
  "bytecode": "0x60806040525f600155348015610013575f80fd5b50611b18806100215f395ff3fe608060405234801561000f575f80fd5b5060043610610060575f3560e01c806326541b5614610064578063316a873d1461008057806372b206c4146100b057806374a9ced9146100cc5780638058316a146100fc578063a63858031461012f575b5f80fd5b61007e60048036038101906100799190610f06565b61014b565b005b61009a60048036038101906100959190610f7c565b6102d8565b6040516100a7919061115d565b60405180910390f35b6100ca60048036038101906100c591906111d7565b6104a2565b005b6100e660048036038101906100e19190610f7c565b6105c6565b6040516100f39190611279565b60405180910390f35b61011660048036038101906101119190610f7c565b6107c3565b60405161012694939291906112b7565b60405180910390f35b61014960048036038101906101449190611332565b610931565b005b5f8260405161015a91906113c6565b90815260200160405180910390206005015f3373ffffffffffffffffffffffffffffffffffffffff1673ffffffffffffffffffffffffffffffffffffffff1681526020019081526020015f205f9054906101000a900460ff166101f2576040517f08c379a00000000000000000000000000000000000000000000000000000000081526004016101e990611426565b60405180910390fd5b5f808360405161020291906113c6565b90815260200160405180910390209050806003015f81548092919061022690611471565b91905055506040518060600160405280826003015481526020018381526020015f815250816002015f836003015481526020019081526020015f205f820151815f0155602082015181600101908161027e91906116b2565b506040820151816002015590505080600301548360405161029f91906113c6565b60405180910390207fa89e28469fa9e15d5149634a9ce8d8dd59ec42c18ba2d281b08c305f2095acef60405160405180910390a3505050565b60605f80836040516102ea91906113c6565b90815260200160405180910390206003015467ffffffffffffffff81111561031557610314610de2565b5b60405190808252806020026020018201604052801561034e57816020015b61033b610d9a565b8152602001906001900390816103335790505b5090505f600190505b5f8460405161036691906113c6565b9081526020016040518091039020600301548111610498575f8460405161038d91906113c6565b90815260200160405180910390206002015f8281526020019081526020015f206040518060600160405290815f82015481526020016001820180546103d1906114e5565b80601f01602080910402602001604051908101604052809291908181526020018280546103fd906114e5565b80156104485780601f1061041f57610100808354040283529160200191610448565b820191905f5260205f20905b81548152906001019060200180831161042b57829003601f168201915b50505050508152602001600282015481525050826001836104699190611781565b8151811061047a576104796117b4565b5b6020026020010181905250808061049090611471565b915050610357565b5080915050919050565b3373ffffffffffffffffffffffffffffffffffffffff165f836040516104c891906113c6565b90815260200160405180910390206006015f9054906101000a900473ffffffffffffffffffffffffffffffffffffffff1673ffffffffffffffffffffffffffffffffffffffff161461054f576040517f08c379a000000000000000000000000000000000000000000000000000000000815260040161054690611851565b60405180910390fd5b60015f8360405161056091906113c6565b90815260200160405180910390206005015f8373ffffffffffffffffffffffffffffffffffffffff1673ffffffffffffffffffffffffffffffffffffffff1681526020019081526020015f205f6101000a81548160ff0219169083151502179055505050565b60605f42336001546040516020016105e0939291906118d4565b60405160208183030381529060405280519060200120905060015f81548092919061060a90611471565b91905055505f61061982610b9f565b90505b5f808260405161062c91906113c6565b90815260200160405180910390206001018054610648906114e5565b9050146106a5574233600154604051602001610666939291906118d4565b60405160208183030381529060405280519060200120915060015f81548092919061069090611471565b919050555061069e82610b9f565b905061061c565b5f80826040516106b591906113c6565b9081526020016040518091039020905081815f0190816106d591906116b2565b50848160010190816106e791906116b2565b5033816006015f6101000a81548173ffffffffffffffffffffffffffffffffffffffff021916908373ffffffffffffffffffffffffffffffffffffffff1602179055506001816005015f3373ffffffffffffffffffffffffffffffffffffffff1673ffffffffffffffffffffffffffffffffffffffff1681526020019081526020015f205f6101000a81548160ff0219169083151502179055507f9bf8745d989aef219097b36114b7e27d7f74b56a6e55ab898a6c4e4a0489f758826040516107b09190611279565b60405180910390a1819350505050919050565b5f818051602081018201805184825260208301602085012081835280955050505050505f91509050805f0180546107f9906114e5565b80601f0160208091040260200160405190810160405280929190818152602001828054610825906114e5565b80156108705780601f1061084757610100808354040283529160200191610870565b820191905f5260205f20905b81548152906001019060200180831161085357829003601f168201915b505050505090806001018054610885906114e5565b80601f01602080910402602001604051908101604052809291908181526020018280546108b1906114e5565b80156108fc5780601f106108d3576101008083540402835291602001916108fc565b820191905f5260205f20905b8154815290600101906020018083116108df57829003601f168201915b505050505090806003015490806006015f9054906101000a900473ffffffffffffffffffffffffffffffffffffffff16905084565b5f808360405161094191906113c6565b9081526020016040518091039020600101805461095d906114e5565b90500361099f576040517f08c379a00000000000000000000000000000000000000000000000000000000081526004016109969061195a565b60405180910390fd5b5f811180156109ce57505f826040516109b891906113c6565b9081526020016040518091039020600301548111155b610a0d576040517f08c379a0000000000000000000000000000000000000000000000000000000008152600401610a04906119c2565b60405180910390fd5b5f82604051610a1c91906113c6565b90815260200160405180910390206004015f3373ffffffffffffffffffffffffffffffffffffffff1673ffffffffffffffffffffffffffffffffffffffff1681526020019081526020015f205f9054906101000a900460ff1615610ab5576040517f08c379a0000000000000000000000000000000000000000000000000000000008152600401610aac90611a50565b60405180910390fd5b5f8083604051610ac591906113c6565b90815260200160405180910390209050806002015f8381526020019081526020015f206002015f815480929190610afb90611471565b91905055506001816004015f3373ffffffffffffffffffffffffffffffffffffffff1673ffffffffffffffffffffffffffffffffffffffff1681526020019081526020015f205f6101000a81548160ff0219169083151502179055508183604051610b6691906113c6565b60405180910390207f82ea01a4479f27996bbe8de24f4c8d962035fe2f32a2b130c8c9ca593ab91aa860405160405180910390a3505050565b60605f6040518060400160405280601081526020017f303132333435363738396162636465660000000000000000000000000000000081525090505f604067ffffffffffffffff811115610bf657610bf5610de2565b5b6040519080825280601f01601f191660200182016040528015610c285781602001600182028036833780820191505090505b5090505f5b6020811015610d8f57826004868360208110610c4c57610c4b6117b4565b5b1a60f81b7effffffffffffffffffffffffffffffffffffffffffffffffffffffffffffff1916901c60f81c60ff1681518110610c8b57610c8a6117b4565b5b602001015160f81c60f81b82600283610ca49190611a6e565b81518110610cb557610cb46117b4565b5b60200101907effffffffffffffffffffffffffffffffffffffffffffffffffffffffffffff191690815f1a90535082600f60f81b868360208110610cfc57610cfb6117b4565b5b1a60f81b1660f81c60ff1681518110610d1857610d176117b4565b5b602001015160f81c60f81b82600283610d319190611a6e565b6001610d3d9190611aaf565b81518110610d4e57610d4d6117b4565b5b60200101907effffffffffffffffffffffffffffffffffffffffffffffffffffffffffffff191690815f1a9053508080610d8790611471565b915050610c2d565b508092505050919050565b60405180606001604052805f8152602001606081526020015f81525090565b5f604051905090565b5f80fd5b5f80fd5b5f80fd5b5f80fd5b5f601f19601f8301169050919050565b7f4e487b71000000000000000000000000000000000000000000000000000000005f52604160045260245ffd5b610e1882610dd2565b810181811067ffffffffffffffff82111715610e3757610e36610de2565b5b80604052505050565b5f610e49610db9565b9050610e558282610e0f565b919050565b5f67ffffffffffffffff821115610e7457610e73610de2565b5b610e7d82610dd2565b9050602081019050919050565b828183375f83830152505050565b5f610eaa610ea584610e5a565b610e40565b905082815260208101848484011115610ec657610ec5610dce565b5b610ed1848285610e8a565b509392505050565b5f82601f830112610eed57610eec610dca565b5b8135610efd848260208601610e98565b91505092915050565b5f8060408385031215610f1c57610f1b610dc2565b5b5f83013567ffffffffffffffff811115610f3957610f38610dc6565b5b610f4585828601610ed9565b925050602083013567ffffffffffffffff811115610f6657610f65610dc6565b5b610f7285828601610ed9565b9150509250929050565b5f60208284031215610f9157610f90610dc2565b5b5f82013567ffffffffffffffff811115610fae57610fad610dc6565b5b610fba84828501610ed9565b91505092915050565b5f81519050919050565b5f82825260208201905092915050565b5f819050602082019050919050565b5f819050919050565b610ffe81610fec565b82525050565b5f81519050919050565b5f82825260208201905092915050565b5f5b8381101561103b578082015181840152602081019050611020565b5f8484015250505050565b5f61105082611004565b61105a818561100e565b935061106a81856020860161101e565b61107381610dd2565b840191505092915050565b5f606083015f8301516110935f860182610ff5565b50602083015184820360208601526110ab8282611046565b91505060408301516110c06040860182610ff5565b508091505092915050565b5f6110d6838361107e565b905092915050565b5f602082019050919050565b5f6110f482610fc3565b6110fe8185610fcd565b93508360208202850161111085610fdd565b805f5b8581101561114b578484038952815161112c85826110cb565b9450611137836110de565b925060208a01995050600181019050611113565b50829750879550505050505092915050565b5f6020820190508181035f83015261117581846110ea565b905092915050565b5f73ffffffffffffffffffffffffffffffffffffffff82169050919050565b5f6111a68261117d565b9050919050565b6111b68161119c565b81146111c0575f80fd5b50565b5f813590506111d1816111ad565b92915050565b5f80604083850312156111ed576111ec610dc2565b5b5f83013567ffffffffffffffff81111561120a57611209610dc6565b5b61121685828601610ed9565b9250506020611227858286016111c3565b9150509250929050565b5f82825260208201905092915050565b5f61124b82611004565b6112558185611231565b935061126581856020860161101e565b61126e81610dd2565b840191505092915050565b5f6020820190508181035f8301526112918184611241565b905092915050565b6112a281610fec565b82525050565b6112b18161119c565b82525050565b5f6080820190508181035f8301526112cf8187611241565b905081810360208301526112e38186611241565b90506112f26040830185611299565b6112ff60608301846112a8565b95945050505050565b61131181610fec565b811461131b575f80fd5b50565b5f8135905061132c81611308565b92915050565b5f806040838503121561134857611347610dc2565b5b5f83013567ffffffffffffffff81111561136557611364610dc6565b5b61137185828601610ed9565b92505060206113828582860161131e565b9150509250929050565b5f81905092915050565b5f6113a082611004565b6113aa818561138c565b93506113ba81856020860161101e565b80840191505092915050565b5f6113d18284611396565b915081905092915050565b7f4f6e6c792061646d696e732063616e206164642063616e6469646174657300005f82015250565b5f611410601e83611231565b915061141b826113dc565b602082019050919050565b5f6020820190508181035f83015261143d81611404565b9050919050565b7f4e487b71000000000000000000000000000000000000000000000000000000005f52601160045260245ffd5b5f61147b82610fec565b91507fffffffffffffffffffffffffffffffffffffffffffffffffffffffffffffffff82036114ad576114ac611444565b5b600182019050919050565b7f4e487b71000000000000000000000000000000000000000000000000000000005f52602260045260245ffd5b5f60028204905060018216806114fc57607f821691505b60208210810361150f5761150e6114b8565b5b50919050565b5f819050815f5260205f209050919050565b5f6020601f8301049050919050565b5f82821b905092915050565b5f600883026115717fffffffffffffffffffffffffffffffffffffffffffffffffffffffffffffffff82611536565b61157b8683611536565b95508019841693508086168417925050509392505050565b5f819050919050565b5f6115b66115b16115ac84610fec565b611593565b610fec565b9050919050565b5f819050919050565b6115cf8361159c565b6115e36115db826115bd565b848454611542565b825550505050565b5f90565b6115f76115eb565b6116028184846115c6565b505050565b5b818110156116255761161a5f826115ef565b600181019050611608565b5050565b601f82111561166a5761163b81611515565b61164484611527565b81016020851015611653578190505b61166761165f85611527565b830182611607565b50505b505050565b5f82821c905092915050565b5f61168a5f198460080261166f565b1980831691505092915050565b5f6116a2838361167b565b9150826002028217905092915050565b6116bb82611004565b67ffffffffffffffff8111156116d4576116d3610de2565b5b6116de82546114e5565b6116e9828285611629565b5f60209050601f83116001811461171a575f8415611708578287015190505b6117128582611697565b865550611779565b601f19841661172886611515565b5f5b8281101561174f5784890151825560018201915060208501945060208101905061172a565b8683101561176c5784890151611768601f89168261167b565b8355505b6001600288020188555050505b505050505050565b5f61178b82610fec565b915061179683610fec565b92508282039050818111156117ae576117ad611444565b5b92915050565b7f4e487b71000000000000000000000000000000000000000000000000000000005f52603260045260245ffd5b7f4f6e6c792074686520706f6c6c2063726561746f722063616e2061737369676e5f8201527f2061646d696e7300000000000000000000000000000000000000000000000000602082015250565b5f61183b602783611231565b9150611846826117e1565b604082019050919050565b5f6020820190508181035f8301526118688161182f565b9050919050565b5f819050919050565b61188961188482610fec565b61186f565b82525050565b5f8160601b9050919050565b5f6118a58261188f565b9050919050565b5f6118b68261189b565b9050919050565b6118ce6118c98261119c565b6118ac565b82525050565b5f6118df8286611878565b6020820191506118ef82856118bd565b6014820191506118ff8284611878565b602082019150819050949350505050565b7f496e76616c696420706f6c6c20494400000000000000000000000000000000005f82015250565b5f611944600f83611231565b915061194f82611910565b602082019050919050565b5f6020820190508181035f83015261197181611938565b9050919050565b7f496e76616c69642063616e6469646174652049440000000000000000000000005f82015250565b5f6119ac601483611231565b91506119b782611978565b602082019050919050565b5f6020820190508181035f8301526119d9816119a0565b9050919050565b7f566f7465722068617320616c726561647920766f74656420696e2074686973205f8201527f706f6c6c00000000000000000000000000000000000000000000000000000000602082015250565b5f611a3a602483611231565b9150611a45826119e0565b604082019050919050565b5f6020820190508181035f830152611a6781611a2e565b9050919050565b5f611a7882610fec565b9150611a8383610fec565b9250828202611a9181610fec565b91508282048414831517611aa857611aa7611444565b5b5092915050565b5f611ab982610fec565b9150611ac483610fec565b9250828201905080821115611adc57611adb611444565b5b9291505056fea26469706673582212201d58009827195e800dbc9fab375e541006f4bfa3f47b22c9ccacdc99c2d96cc964736f6c63430008150033",
  "immutableReferences": {},
  "source": "// SPDX-License-Identifier: UNLICENSED\npragma experimental ABIEncoderV2;\npragma solidity >=0.8.0 <0.9.0;\n\ncontract theVotingContract {\n    \n    struct Candidate {\n        uint id;\n        string name;\n        uint voteCount;\n    }\n\n    struct Poll {\n        string id;\n        string description;\n        mapping(uint => Candidate) candidates;\n        uint candidatesCount;\n        mapping(address => bool) hasVoted; // Track if a voter has voted\n        mapping(address => bool) admins;\n        address creator;\n    }\n\n    mapping(string => Poll) public polls;\n    uint256 private nonce = 0; // Counter to ensure different values\n\n    event PollCreated(string pollId);\n    event CandidateAdded(string indexed pollId, uint indexed candidateId);\n    event Voted(string indexed pollId, uint indexed candidateId);\n\n    function createPoll(string memory _description) public returns (string memory) {\n        bytes32 randomHash = keccak256(abi.encodePacked(block.timestamp, msg.sender, nonce));\n        nonce++;\n        string memory randomId = toHexString(randomHash);\n\n        // Ensure unique ID\n        while(bytes(polls[randomId].description).length != 0) {\n            randomHash = keccak256(abi.encodePacked(block.timestamp, msg.sender, nonce));\n            nonce++;\n            randomId = toHexString(randomHash);\n        }\n\n        Poll storage newPoll = polls[randomId];\n        newPoll.id = randomId;\n        newPoll.description = _description;\n        newPoll.creator = msg.sender;\n        newPoll.admins[msg.sender] = true;\n        emit PollCreated(randomId);\n\n        return randomId;\n    }\n\n    function addCandidate(string memory _pollId, string memory _name) public {\n        require(polls[_pollId].admins[msg.sender], \"Only admins can add candidates\");\n        Poll storage poll = polls[_pollId];\n        poll.candidatesCount++;\n        poll.candidates[poll.candidatesCount] = Candidate(poll.candidatesCount, _name, 0);\n        emit CandidateAdded(_pollId, poll.candidatesCount);\n    }\n\n    function assignAdmin(string memory _pollId, address _admin) public {\n        require(polls[_pollId].creator == msg.sender, \"Only the poll creator can assign admins\");\n        polls[_pollId].admins[_admin] = true;\n    }\n\n    function vote(string memory _pollId, uint _candidateId) public {\n        require(bytes(polls[_pollId].description).length != 0, \"Invalid poll ID\");\n        require(_candidateId > 0 && _candidateId <= polls[_pollId].candidatesCount, \"Invalid candidate ID\");\n        require(!polls[_pollId].hasVoted[msg.sender], \"Voter has already voted in this poll\");\n        \n        Poll storage poll = polls[_pollId];\n        poll.candidates[_candidateId].voteCount++;\n        poll.hasVoted[msg.sender] = true;\n        emit Voted(_pollId, _candidateId);\n    }\n\n    function getPollCandidates(string memory _pollId) public view returns (Candidate[] memory) {\n        Candidate[] memory candidatesArray = new Candidate[](polls[_pollId].candidatesCount);\n        for (uint i = 1; i <= polls[_pollId].candidatesCount; i++) {\n            candidatesArray[i - 1] = polls[_pollId].candidates[i];\n        }\n        return candidatesArray;\n    }\n\n    function toHexString(bytes32 data) internal pure returns (string memory) {\n        bytes memory alphabet = \"0123456789abcdef\";\n        bytes memory str = new bytes(64);\n\n        for (uint256 i = 0; i < 32; i++) {\n            str[i*2] = alphabet[uint8(data[i] >> 4)];\n            str[1+i*2] = alphabet[uint8(data[i] & 0x0f)];\n        }\n\n        return string(str);\n    }\n}\n",
  "sourcePath": "/Users/schadotra/Desktop/Blockchain/voting-app/voting-contract/contracts/theVotingContract.sol",
  "compiler": {
    "name": "solc",
    "version": "0.8.21+commit.d9974bed.Emscripten.clang"
  },
  "schemaVersion": "3.4.16",
  "updatedAt": "2023-11-25T22:50:09.735Z",
  "networkType": "ethereum",
  "devdoc": {
    "kind": "dev",
    "methods": {},
    "version": 1
  },
  "userdoc": {
    "kind": "user",
    "methods": {},
    "version": 1
  }
}