{
  "contractName": "theVotingContract",
  "abi": [
    {
      "anonymous": false,
      "inputs": [
        {
          "indexed": true,
          "internalType": "uint256",
          "name": "pollId",
          "type": "uint256"
        },
        {
          "indexed": true,
          "internalType": "uint256",
          "name": "candidateId",
          "type": "uint256"
        }
      ],
      "name": "CandidateAdded",
      "type": "event"
    },
    {
      "anonymous": false,
      "inputs": [
        {
          "indexed": true,
          "internalType": "uint256",
          "name": "pollId",
          "type": "uint256"
        }
      ],
      "name": "PollCreated",
      "type": "event"
    },
    {
      "anonymous": false,
      "inputs": [
        {
          "indexed": true,
          "internalType": "uint256",
          "name": "pollId",
          "type": "uint256"
        },
        {
          "indexed": true,
          "internalType": "uint256",
          "name": "candidateId",
          "type": "uint256"
        }
      ],
      "name": "Voted",
      "type": "event"
    },
    {
      "inputs": [
        {
          "internalType": "uint256",
          "name": "",
          "type": "uint256"
        }
      ],
      "name": "polls",
      "outputs": [
        {
          "internalType": "uint256",
          "name": "id",
          "type": "uint256"
        },
        {
          "internalType": "string",
          "name": "description",
          "type": "string"
        },
        {
          "internalType": "uint256",
          "name": "candidatesCount",
          "type": "uint256"
        },
        {
          "internalType": "address",
          "name": "creator",
          "type": "address"
        }
      ],
      "stateMutability": "view",
      "type": "function",
      "constant": true
    },
    {
      "inputs": [],
      "name": "pollsCount",
      "outputs": [
        {
          "internalType": "uint256",
          "name": "",
          "type": "uint256"
        }
      ],
      "stateMutability": "view",
      "type": "function",
      "constant": true
    },
    {
      "inputs": [
        {
          "internalType": "string",
          "name": "_description",
          "type": "string"
        }
      ],
      "name": "createPoll",
      "outputs": [
        {
          "internalType": "uint256",
          "name": "",
          "type": "uint256"
        }
      ],
      "stateMutability": "nonpayable",
      "type": "function"
    },
    {
      "inputs": [
        {
          "internalType": "uint256",
          "name": "_pollId",
          "type": "uint256"
        },
        {
          "internalType": "string",
          "name": "_name",
          "type": "string"
        }
      ],
      "name": "addCandidate",
      "outputs": [],
      "stateMutability": "nonpayable",
      "type": "function"
    },
    {
      "inputs": [
        {
          "internalType": "uint256",
          "name": "_pollId",
          "type": "uint256"
        },
        {
          "internalType": "address",
          "name": "_admin",
          "type": "address"
        }
      ],
      "name": "assignAdmin",
      "outputs": [],
      "stateMutability": "nonpayable",
      "type": "function"
    },
    {
      "inputs": [
        {
          "internalType": "uint256",
          "name": "_pollId",
          "type": "uint256"
        },
        {
          "internalType": "uint256",
          "name": "_candidateId",
          "type": "uint256"
        }
      ],
      "name": "vote",
      "outputs": [],
      "stateMutability": "nonpayable",
      "type": "function"
    },
    {
      "inputs": [
        {
          "internalType": "uint256",
          "name": "_pollId",
          "type": "uint256"
        }
      ],
      "name": "getPollCandidates",
      "outputs": [
        {
          "components": [
            {
              "internalType": "uint256",
              "name": "id",
              "type": "uint256"
            },
            {
              "internalType": "string",
              "name": "name",
              "type": "string"
            },
            {
              "internalType": "uint256",
              "name": "voteCount",
              "type": "uint256"
            }
          ],
          "internalType": "struct theVotingContract.Candidate[]",
          "name": "",
          "type": "tuple[]"
        }
      ],
      "stateMutability": "view",
      "type": "function",
      "constant": true
    }
  ],
  "bytecode": "0x608060405234801561000f575f80fd5b506115778061001d5f395ff3fe608060405234801561000f575f80fd5b506004361061007b575f3560e01c806374a9ced91161005957806374a9ced9146100e9578063ac2f007414610119578063b384abef1461014c578063db2ffebc146101685761007b565b80631750a3d01461007f578063179d760d1461009b5780633d0a64e2146100b9575b5f80fd5b61009960048036038101906100949190610b34565b610184565b005b6100a36102e2565b6040516100b09190610b9d565b60405180910390f35b6100d360048036038101906100ce9190610bb6565b6102e8565b6040516100e09190610d72565b60405180910390f35b61010360048036038101906100fe9190610d92565b61048b565b6040516101109190610b9d565b60405180910390f35b610133600480360381019061012e9190610bb6565b6105a7565b6040516101439493929190610e60565b60405180910390f35b61016660048036038101906101619190610eaa565b610677565b005b610182600480360381019061017d9190610f12565b61088b565b005b5f808381526020019081526020015f206005015f3373ffffffffffffffffffffffffffffffffffffffff1673ffffffffffffffffffffffffffffffffffffffff1681526020019081526020015f205f9054906101000a900460ff1661021e576040517f08c379a000000000000000000000000000000000000000000000000000000000815260040161021590610f9a565b60405180910390fd5b5f805f8481526020019081526020015f209050806003015f81548092919061024590610fe5565b91905055506040518060600160405280826003015481526020018381526020015f815250816002015f836003015481526020019081526020015f205f820151815f0155602082015181600101908161029d9190611226565b50604082015181600201559050508060030154837fa072a1e90a5e808c6722a8b7c3457a422c2ee51d7b1a53dceb40bcb32586ac7060405160405180910390a3505050565b60015481565b60605f805f8481526020019081526020015f206003015467ffffffffffffffff81111561031857610317610a10565b5b60405190808252806020026020018201604052801561035157816020015b61033e610995565b8152602001906001900390816103365790505b5090505f600190505b5f808581526020019081526020015f20600301548111610481575f808581526020019081526020015f206002015f8281526020019081526020015f206040518060600160405290815f82015481526020016001820180546103ba90611059565b80601f01602080910402602001604051908101604052809291908181526020018280546103e690611059565b80156104315780601f1061040857610100808354040283529160200191610431565b820191905f5260205f20905b81548152906001019060200180831161041457829003601f168201915b505050505081526020016002820154815250508260018361045291906112f5565b8151811061046357610462611328565b5b6020026020010181905250808061047990610fe5565b91505061035a565b5080915050919050565b5f60015f81548092919061049e90610fe5565b91905055505f805f60015481526020019081526020015f209050600154815f0181905550828160010190816104d39190611226565b5033816006015f6101000a81548173ffffffffffffffffffffffffffffffffffffffff021916908373ffffffffffffffffffffffffffffffffffffffff1602179055506001816005015f3373ffffffffffffffffffffffffffffffffffffffff1673ffffffffffffffffffffffffffffffffffffffff1681526020019081526020015f205f6101000a81548160ff0219169083151502179055506001547fab0309b6731a34e8750174d3c2c9591a34a2bf0c1425a30b34122be08d05073960405160405180910390a2600154915050919050565b5f602052805f5260405f205f91509050805f0154908060010180546105cb90611059565b80601f01602080910402602001604051908101604052809291908181526020018280546105f790611059565b80156106425780601f1061061957610100808354040283529160200191610642565b820191905f5260205f20905b81548152906001019060200180831161062557829003601f168201915b505050505090806003015490806006015f9054906101000a900473ffffffffffffffffffffffffffffffffffffffff16905084565b5f8211801561068857506001548211155b6106c7576040517f08c379a00000000000000000000000000000000000000000000000000000000081526004016106be9061139f565b60405180910390fd5b5f811180156106e957505f808381526020019081526020015f20600301548111155b610728576040517f08c379a000000000000000000000000000000000000000000000000000000000815260040161071f90611407565b60405180910390fd5b5f808381526020019081526020015f206004015f3373ffffffffffffffffffffffffffffffffffffffff1673ffffffffffffffffffffffffffffffffffffffff1681526020019081526020015f205f9054906101000a900460ff16156107c3576040517f08c379a00000000000000000000000000000000000000000000000000000000081526004016107ba90611495565b60405180910390fd5b5f805f8481526020019081526020015f209050806002015f8381526020019081526020015f206002015f8154809291906107fc90610fe5565b91905055506001816004015f3373ffffffffffffffffffffffffffffffffffffffff1673ffffffffffffffffffffffffffffffffffffffff1681526020019081526020015f205f6101000a81548160ff02191690831515021790555081837f84a5508ca0d85b42a876e75a9126f3ae7b43617ce60b170bf8805d34630bc65460405160405180910390a3505050565b3373ffffffffffffffffffffffffffffffffffffffff165f808481526020019081526020015f206006015f9054906101000a900473ffffffffffffffffffffffffffffffffffffffff1673ffffffffffffffffffffffffffffffffffffffff161461092b576040517f08c379a000000000000000000000000000000000000000000000000000000000815260040161092290611523565b60405180910390fd5b60015f808481526020019081526020015f206005015f8373ffffffffffffffffffffffffffffffffffffffff1673ffffffffffffffffffffffffffffffffffffffff1681526020019081526020015f205f6101000a81548160ff0219169083151502179055505050565b60405180606001604052805f8152602001606081526020015f81525090565b5f604051905090565b5f80fd5b5f80fd5b5f819050919050565b6109d7816109c5565b81146109e1575f80fd5b50565b5f813590506109f2816109ce565b92915050565b5f80fd5b5f80fd5b5f601f19601f8301169050919050565b7f4e487b71000000000000000000000000000000000000000000000000000000005f52604160045260245ffd5b610a4682610a00565b810181811067ffffffffffffffff82111715610a6557610a64610a10565b5b80604052505050565b5f610a776109b4565b9050610a838282610a3d565b919050565b5f67ffffffffffffffff821115610aa257610aa1610a10565b5b610aab82610a00565b9050602081019050919050565b828183375f83830152505050565b5f610ad8610ad384610a88565b610a6e565b905082815260208101848484011115610af457610af36109fc565b5b610aff848285610ab8565b509392505050565b5f82601f830112610b1b57610b1a6109f8565b5b8135610b2b848260208601610ac6565b91505092915050565b5f8060408385031215610b4a57610b496109bd565b5b5f610b57858286016109e4565b925050602083013567ffffffffffffffff811115610b7857610b776109c1565b5b610b8485828601610b07565b9150509250929050565b610b97816109c5565b82525050565b5f602082019050610bb05f830184610b8e565b92915050565b5f60208284031215610bcb57610bca6109bd565b5b5f610bd8848285016109e4565b91505092915050565b5f81519050919050565b5f82825260208201905092915050565b5f819050602082019050919050565b610c13816109c5565b82525050565b5f81519050919050565b5f82825260208201905092915050565b5f5b83811015610c50578082015181840152602081019050610c35565b5f8484015250505050565b5f610c6582610c19565b610c6f8185610c23565b9350610c7f818560208601610c33565b610c8881610a00565b840191505092915050565b5f606083015f830151610ca85f860182610c0a565b5060208301518482036020860152610cc08282610c5b565b9150506040830151610cd56040860182610c0a565b508091505092915050565b5f610ceb8383610c93565b905092915050565b5f602082019050919050565b5f610d0982610be1565b610d138185610beb565b935083602082028501610d2585610bfb565b805f5b85811015610d605784840389528151610d418582610ce0565b9450610d4c83610cf3565b925060208a01995050600181019050610d28565b50829750879550505050505092915050565b5f6020820190508181035f830152610d8a8184610cff565b905092915050565b5f60208284031215610da757610da66109bd565b5b5f82013567ffffffffffffffff811115610dc457610dc36109c1565b5b610dd084828501610b07565b91505092915050565b5f82825260208201905092915050565b5f610df382610c19565b610dfd8185610dd9565b9350610e0d818560208601610c33565b610e1681610a00565b840191505092915050565b5f73ffffffffffffffffffffffffffffffffffffffff82169050919050565b5f610e4a82610e21565b9050919050565b610e5a81610e40565b82525050565b5f608082019050610e735f830187610b8e565b8181036020830152610e858186610de9565b9050610e946040830185610b8e565b610ea16060830184610e51565b95945050505050565b5f8060408385031215610ec057610ebf6109bd565b5b5f610ecd858286016109e4565b9250506020610ede858286016109e4565b9150509250929050565b610ef181610e40565b8114610efb575f80fd5b50565b5f81359050610f0c81610ee8565b92915050565b5f8060408385031215610f2857610f276109bd565b5b5f610f35858286016109e4565b9250506020610f4685828601610efe565b9150509250929050565b7f4f6e6c792061646d696e732063616e206164642063616e6469646174657300005f82015250565b5f610f84601e83610dd9565b9150610f8f82610f50565b602082019050919050565b5f6020820190508181035f830152610fb181610f78565b9050919050565b7f4e487b71000000000000000000000000000000000000000000000000000000005f52601160045260245ffd5b5f610fef826109c5565b91507fffffffffffffffffffffffffffffffffffffffffffffffffffffffffffffffff820361102157611020610fb8565b5b600182019050919050565b7f4e487b71000000000000000000000000000000000000000000000000000000005f52602260045260245ffd5b5f600282049050600182168061107057607f821691505b6020821081036110835761108261102c565b5b50919050565b5f819050815f5260205f209050919050565b5f6020601f8301049050919050565b5f82821b905092915050565b5f600883026110e57fffffffffffffffffffffffffffffffffffffffffffffffffffffffffffffffff826110aa565b6110ef86836110aa565b95508019841693508086168417925050509392505050565b5f819050919050565b5f61112a611125611120846109c5565b611107565b6109c5565b9050919050565b5f819050919050565b61114383611110565b61115761114f82611131565b8484546110b6565b825550505050565b5f90565b61116b61115f565b61117681848461113a565b505050565b5b818110156111995761118e5f82611163565b60018101905061117c565b5050565b601f8211156111de576111af81611089565b6111b88461109b565b810160208510156111c7578190505b6111db6111d38561109b565b83018261117b565b50505b505050565b5f82821c905092915050565b5f6111fe5f19846008026111e3565b1980831691505092915050565b5f61121683836111ef565b9150826002028217905092915050565b61122f82610c19565b67ffffffffffffffff81111561124857611247610a10565b5b6112528254611059565b61125d82828561119d565b5f60209050601f83116001811461128e575f841561127c578287015190505b611286858261120b565b8655506112ed565b601f19841661129c86611089565b5f5b828110156112c35784890151825560018201915060208501945060208101905061129e565b868310156112e057848901516112dc601f8916826111ef565b8355505b6001600288020188555050505b505050505050565b5f6112ff826109c5565b915061130a836109c5565b925082820390508181111561132257611321610fb8565b5b92915050565b7f4e487b71000000000000000000000000000000000000000000000000000000005f52603260045260245ffd5b7f496e76616c696420706f6c6c20494400000000000000000000000000000000005f82015250565b5f611389600f83610dd9565b915061139482611355565b602082019050919050565b5f6020820190508181035f8301526113b68161137d565b9050919050565b7f496e76616c69642063616e6469646174652049440000000000000000000000005f82015250565b5f6113f1601483610dd9565b91506113fc826113bd565b602082019050919050565b5f6020820190508181035f83015261141e816113e5565b9050919050565b7f566f7465722068617320616c726561647920766f74656420696e2074686973205f8201527f706f6c6c00000000000000000000000000000000000000000000000000000000602082015250565b5f61147f602483610dd9565b915061148a82611425565b604082019050919050565b5f6020820190508181035f8301526114ac81611473565b9050919050565b7f4f6e6c792074686520706f6c6c2063726561746f722063616e2061737369676e5f8201527f2061646d696e7300000000000000000000000000000000000000000000000000602082015250565b5f61150d602783610dd9565b9150611518826114b3565b604082019050919050565b5f6020820190508181035f83015261153a81611501565b905091905056fea2646970667358221220e8c84dae5d085accf82601c44ca5f3136367e33d0edb8da621cb695b42155cf064736f6c63430008150033",
  "immutableReferences": {},
  "source": "// SPDX-License-Identifier: UNLICENSED\npragma experimental ABIEncoderV2;\npragma solidity >=0.8.0 <0.9.0;\n\ncontract theVotingContract {\n    \n    struct Candidate {\n        uint id;\n        string name;\n        uint voteCount;\n    }\n\n    struct Poll {\n        uint id;\n        string description;\n        mapping(uint => Candidate) candidates;\n        uint candidatesCount;\n        mapping(address => bool) hasVoted; // Track if a voter has voted\n        mapping(address => bool) admins;\n        address creator;\n    }\n\n    mapping(uint => Poll) public polls;\n    uint public pollsCount;\n\n    event PollCreated(uint indexed pollId);\n    event CandidateAdded(uint indexed pollId, uint indexed candidateId);\n    event Voted(uint indexed pollId, uint indexed candidateId);\n\n    function createPoll(string memory _description) public returns (uint) {\n        pollsCount++;\n        Poll storage newPoll = polls[pollsCount];\n        newPoll.id = pollsCount;\n        newPoll.description = _description;\n        newPoll.creator = msg.sender;\n        newPoll.admins[msg.sender] = true; // Creator is an admin of the poll\n        emit PollCreated(pollsCount);\n        return pollsCount;\n    }\n\n    function addCandidate(uint _pollId, string memory _name) public {\n        require(polls[_pollId].admins[msg.sender], \"Only admins can add candidates\");\n        Poll storage poll = polls[_pollId];\n        poll.candidatesCount++;\n        poll.candidates[poll.candidatesCount] = Candidate(poll.candidatesCount, _name, 0);\n        emit CandidateAdded(_pollId, poll.candidatesCount);\n    }\n\n    function assignAdmin(uint _pollId, address _admin) public {\n        require(polls[_pollId].creator == msg.sender, \"Only the poll creator can assign admins\");\n        polls[_pollId].admins[_admin] = true;\n    }\n\n    function vote(uint _pollId, uint _candidateId) public {\n        require(_pollId > 0 && _pollId <= pollsCount, \"Invalid poll ID\");\n        require(_candidateId > 0 && _candidateId <= polls[_pollId].candidatesCount, \"Invalid candidate ID\");\n        require(!polls[_pollId].hasVoted[msg.sender], \"Voter has already voted in this poll\");\n        \n        Poll storage poll = polls[_pollId];\n        poll.candidates[_candidateId].voteCount++;\n        poll.hasVoted[msg.sender] = true; // Record that this voter has voted\n\n        emit Voted(_pollId, _candidateId);\n    }\n\n    function getPollCandidates(uint _pollId) public view returns (Candidate[] memory) {\n        Candidate[] memory candidatesArray = new Candidate[](polls[_pollId].candidatesCount);\n        for (uint i = 1; i <= polls[_pollId].candidatesCount; i++) {\n            candidatesArray[i - 1] = polls[_pollId].candidates[i];\n        }\n        return candidatesArray;\n    }\n}\n",
  "sourcePath": "/Users/schadotra/Desktop/Blockchain/voting-app/voting-contract/contracts/theVotingContract.sol",
  "compiler": {
    "name": "solc",
    "version": "0.8.21+commit.d9974bed.Emscripten.clang"
  },
  "schemaVersion": "3.4.16",
  "updatedAt": "2023-11-25T01:38:29.119Z",
  "networkType": "ethereum",
  "devdoc": {
    "kind": "dev",
    "methods": {},
    "version": 1
  },
  "userdoc": {
    "kind": "user",
    "methods": {},
    "version": 1
  }
}